{
  "contractName": "VoterApp",
  "abi": [
    {
      "inputs": [],
      "payable": false,
      "stateMutability": "nonpayable",
      "type": "constructor"
    },
    {
      "constant": true,
      "inputs": [],
      "name": "amendmentCount",
      "outputs": [
        {
          "internalType": "uint256",
          "name": "",
          "type": "uint256"
        }
      ],
      "payable": false,
      "stateMutability": "view",
      "type": "function"
    },
    {
      "constant": true,
      "inputs": [
        {
          "internalType": "uint256",
          "name": "",
          "type": "uint256"
        }
      ],
      "name": "amendments",
      "outputs": [
        {
          "internalType": "uint256",
          "name": "electionId",
          "type": "uint256"
        },
        {
          "internalType": "string",
          "name": "amendmentName",
          "type": "string"
        },
        {
          "internalType": "string",
          "name": "amendmentDescription",
          "type": "string"
        },
        {
          "internalType": "uint256",
          "name": "votesFor",
          "type": "uint256"
        },
        {
          "internalType": "uint256",
          "name": "votesAgainst",
          "type": "uint256"
        }
      ],
      "payable": false,
      "stateMutability": "view",
      "type": "function"
    },
    {
      "constant": true,
      "inputs": [],
      "name": "appName",
      "outputs": [
        {
          "internalType": "string",
          "name": "",
          "type": "string"
        }
      ],
      "payable": false,
      "stateMutability": "view",
      "type": "function"
    },
    {
      "constant": true,
      "inputs": [],
      "name": "candidateCount",
      "outputs": [
        {
          "internalType": "uint256",
          "name": "",
          "type": "uint256"
        }
      ],
      "payable": false,
      "stateMutability": "view",
      "type": "function"
    },
    {
      "constant": true,
      "inputs": [
        {
          "internalType": "uint256",
          "name": "",
          "type": "uint256"
        }
      ],
      "name": "candidates",
      "outputs": [
        {
          "internalType": "uint256",
          "name": "contestId",
          "type": "uint256"
        },
        {
          "internalType": "string",
          "name": "candidateName",
          "type": "string"
        },
        {
          "internalType": "string",
          "name": "candidatePlatform",
          "type": "string"
        },
        {
          "internalType": "uint256",
          "name": "voteCount",
          "type": "uint256"
        }
      ],
      "payable": false,
      "stateMutability": "view",
      "type": "function"
    },
    {
      "constant": true,
      "inputs": [],
      "name": "contestCount",
      "outputs": [
        {
          "internalType": "uint256",
          "name": "",
          "type": "uint256"
        }
      ],
      "payable": false,
      "stateMutability": "view",
      "type": "function"
    },
    {
      "constant": true,
      "inputs": [
        {
          "internalType": "uint256",
          "name": "",
          "type": "uint256"
        }
      ],
      "name": "contests",
      "outputs": [
        {
          "internalType": "uint256",
          "name": "electionId",
          "type": "uint256"
        },
        {
          "internalType": "string",
          "name": "contestName",
          "type": "string"
        }
      ],
      "payable": false,
      "stateMutability": "view",
      "type": "function"
    },
    {
      "constant": true,
      "inputs": [],
      "name": "electionCount",
      "outputs": [
        {
          "internalType": "uint256",
          "name": "",
          "type": "uint256"
        }
      ],
      "payable": false,
      "stateMutability": "view",
      "type": "function"
    },
    {
      "constant": true,
      "inputs": [
        {
          "internalType": "uint256",
          "name": "",
          "type": "uint256"
        }
      ],
      "name": "elections",
      "outputs": [
        {
          "internalType": "string",
          "name": "electionName",
          "type": "string"
        },
        {
          "internalType": "uint256",
          "name": "closingDate",
          "type": "uint256"
        },
        {
          "internalType": "bool",
          "name": "isClosed",
          "type": "bool"
        }
      ],
      "payable": false,
      "stateMutability": "view",
      "type": "function"
    },
    {
      "constant": true,
      "inputs": [],
      "name": "voterCount",
      "outputs": [
        {
          "internalType": "uint256",
          "name": "",
          "type": "uint256"
        }
      ],
      "payable": false,
      "stateMutability": "view",
      "type": "function"
    },
    {
      "constant": true,
      "inputs": [
        {
          "internalType": "address",
          "name": "",
          "type": "address"
        }
      ],
      "name": "voters",
      "outputs": [
        {
          "internalType": "bool",
          "name": "isRegistered",
          "type": "bool"
        }
      ],
      "payable": false,
      "stateMutability": "view",
      "type": "function"
    },
    {
      "constant": false,
      "inputs": [],
      "name": "isAdmin",
      "outputs": [
        {
          "internalType": "address",
          "name": "",
          "type": "address"
        }
      ],
      "payable": false,
      "stateMutability": "nonpayable",
      "type": "function"
    },
    {
      "constant": false,
      "inputs": [
        {
          "components": [
            {
              "internalType": "string",
              "name": "electionName",
              "type": "string"
            },
            {
              "internalType": "uint256",
              "name": "closingDate",
              "type": "uint256"
            },
            {
              "internalType": "bool",
              "name": "isClosed",
              "type": "bool"
            }
          ],
          "internalType": "struct VoterApp.Election",
          "name": "_election",
          "type": "tuple"
        },
        {
          "components": [
            {
              "internalType": "uint256",
              "name": "electionId",
              "type": "uint256"
            },
            {
              "internalType": "string",
              "name": "amendmentName",
              "type": "string"
            },
            {
              "internalType": "string",
              "name": "amendmentDescription",
              "type": "string"
            },
            {
              "internalType": "uint256",
              "name": "votesFor",
              "type": "uint256"
            },
            {
              "internalType": "uint256",
              "name": "votesAgainst",
              "type": "uint256"
            }
          ],
          "internalType": "struct VoterApp.Amendment[]",
          "name": "_amendments",
          "type": "tuple[]"
        },
        {
          "components": [
            {
              "internalType": "uint256",
              "name": "electionId",
              "type": "uint256"
            },
            {
              "internalType": "string",
              "name": "contestName",
              "type": "string"
            }
          ],
          "internalType": "struct VoterApp.Contest[]",
          "name": "_contests",
          "type": "tuple[]"
        },
        {
          "components": [
            {
              "internalType": "uint256",
              "name": "contestId",
              "type": "uint256"
            },
            {
              "internalType": "string",
              "name": "candidateName",
              "type": "string"
            },
            {
              "internalType": "string",
              "name": "candidatePlatform",
              "type": "string"
            },
            {
              "internalType": "uint256",
              "name": "voteCount",
              "type": "uint256"
            }
          ],
          "internalType": "struct VoterApp.Candidate[]",
          "name": "_candidates",
          "type": "tuple[]"
        }
      ],
      "name": "createElection",
      "outputs": [],
      "payable": false,
      "stateMutability": "nonpayable",
      "type": "function"
    },
    {
      "constant": false,
      "inputs": [
        {
          "internalType": "address",
          "name": "_voterId",
          "type": "address"
        }
      ],
      "name": "registerVoter",
      "outputs": [],
      "payable": false,
      "stateMutability": "nonpayable",
      "type": "function"
    },
    {
      "constant": false,
      "inputs": [
        {
          "internalType": "uint256",
          "name": "electionId",
          "type": "uint256"
        },
        {
          "internalType": "uint256[]",
          "name": "amendmentId",
          "type": "uint256[]"
        },
        {
          "internalType": "int256[]",
          "name": "amendmentVote",
          "type": "int256[]"
        },
        {
          "internalType": "int256[]",
          "name": "contestVote",
          "type": "int256[]"
        }
      ],
      "name": "castBallot",
      "outputs": [],
      "payable": false,
      "stateMutability": "nonpayable",
      "type": "function"
    }
  ],
  "bytecode": "0x6080604052600060025560006003556000600455600060055560006006553480156200002a57600080fd5b506040518060400160405280601781526020017f434761727920566f746572204170706c69636174696f6e00000000000000000081525060009080519060200190620000789291906200022d565b5033600160006101000a81548173ffffffffffffffffffffffffffffffffffffffff021916908373ffffffffffffffffffffffffffffffffffffffff160217905550620000ed600160009054906101000a900473ffffffffffffffffffffffffffffffffffffffff16620000f360201b60201c565b620002dc565b600160009054906101000a900473ffffffffffffffffffffffffffffffffffffffff1673ffffffffffffffffffffffffffffffffffffffff163373ffffffffffffffffffffffffffffffffffffffff16146200014e57600080fd5b6001600b60008373ffffffffffffffffffffffffffffffffffffffff1673ffffffffffffffffffffffffffffffffffffffff16815260200190815260200160002060000160006101000a81548160ff021916908315150217905550600b60008273ffffffffffffffffffffffffffffffffffffffff1673ffffffffffffffffffffffffffffffffffffffff168152602001908152602001600020600101620f4240908060018154018082558091505090600182039060005260206000200160009091929091909150555060066000815480929190600101919050555050565b828054600181600116156101000203166002900490600052602060002090601f016020900481019282601f106200027057805160ff1916838001178555620002a1565b82800160010185558215620002a1579182015b82811115620002a057825182559160200191906001019062000283565b5b509050620002b09190620002b4565b5090565b620002d991905b80821115620002d5576000816000905550600101620002bb565b5090565b90565b611b2480620002ec6000396000f3fe608060405234801561001057600080fd5b50600436106100f55760003560e01c80635e6fef01116100975780639d7ed738116100665780639d7ed7381461027d578063a3ec138d146102ae578063a9a981a3146102de578063b6db75a0146102fc576100f5565b80635e6fef01146101f35780636a864f8a146102255780638d4fdb3b14610241578063997d28301461025f576100f5565b80631b020a6b116100d35780631b020a6b1461016a5780633477ee2e1461018657806338db6dd3146101b957806342169e48146101d5576100f5565b80630c97282c146100fa57806313e8cc39146101185780631984f6d71461014c575b600080fd5b61010261031a565b60405161010f91906117f7565b60405180910390f35b610132600480360361012d9190810190611687565b6103b8565b6040516101439594939291906118f5565b60405180910390f35b61015461051e565b6040516101619190611857565b60405180910390f35b610184600480360361017f91908101906116b0565b610524565b005b6101a0600480360361019b9190810190611687565b6106e1565b6040516101b094939291906118a2565b60405180910390f35b6101d360048036036101ce9190810190611564565b610841565b005b6101dd61097a565b6040516101ea9190611857565b60405180910390f35b61020d60048036036102089190810190611687565b610980565b60405161021c93929190611819565b60405180910390f35b61023f600480360361023a91908101906115b6565b610a4f565b005b6102496110af565b6040516102569190611857565b60405180910390f35b6102676110b5565b6040516102749190611857565b60405180910390f35b61029760048036036102929190810190611687565b6110bb565b6040516102a5929190611872565b60405180910390f35b6102c860048036036102c39190810190611564565b611177565b6040516102d591906117dc565b60405180910390f35b6102e66111a2565b6040516102f39190611857565b60405180910390f35b6103046111a8565b60405161031191906117c1565b60405180910390f35b60008054600181600116156101000203166002900480601f0160208091040260200160405190810160405280929190818152602001828054600181600116156101000203166002900480156103b05780601f10610385576101008083540402835291602001916103b0565b820191906000526020600020905b81548152906001019060200180831161039357829003601f168201915b505050505081565b600a602052806000526040600020600091509050806000015490806001018054600181600116156101000203166002900480601f01602080910402602001604051908101604052809291908181526020018280546001816001161561010002031660029004801561046a5780601f1061043f5761010080835404028352916020019161046a565b820191906000526020600020905b81548152906001019060200180831161044d57829003601f168201915b505050505090806002018054600181600116156101000203166002900480601f0160208091040260200160405190810160405280929190818152602001828054600181600116156101000203166002900480156105085780601f106104dd57610100808354040283529160200191610508565b820191906000526020600020905b8154815290600101906020018083116104eb57829003601f168201915b5050505050908060030154908060040154905085565b60055481565b60008090505b600b60003373ffffffffffffffffffffffffffffffffffffffff1673ffffffffffffffffffffffffffffffffffffffff168152602001908152602001600020600101805490508110156105e85784600b60003373ffffffffffffffffffffffffffffffffffffffff1673ffffffffffffffffffffffffffffffffffffffff16815260200190815260200160002060010182815481106105c557fe5b906000526020600020015414156105db57600080fd5b808060010191505061052a565b5060008090505b83518110156106355761062884828151811061060757fe5b602002602001015184838151811061061b57fe5b60200260200101516111d2565b80806001019150506105ef565b5060008090505b815181101561066e5761066182828151811061065457fe5b602002602001015161123a565b808060010191505061063c565b50600b60003373ffffffffffffffffffffffffffffffffffffffff1673ffffffffffffffffffffffffffffffffffffffff16815260200190815260200160002060010184908060018154018082558091505090600182039060005260206000200160009091929091909150555050505050565b6009602052806000526040600020600091509050806000015490806001018054600181600116156101000203166002900480601f0160208091040260200160405190810160405280929190818152602001828054600181600116156101000203166002900480156107935780601f1061076857610100808354040283529160200191610793565b820191906000526020600020905b81548152906001019060200180831161077657829003601f168201915b505050505090806002018054600181600116156101000203166002900480601f0160208091040260200160405190810160405280929190818152602001828054600181600116156101000203166002900480156108315780601f1061080657610100808354040283529160200191610831565b820191906000526020600020905b81548152906001019060200180831161081457829003601f168201915b5050505050908060030154905084565b600160009054906101000a900473ffffffffffffffffffffffffffffffffffffffff1673ffffffffffffffffffffffffffffffffffffffff163373ffffffffffffffffffffffffffffffffffffffff161461089b57600080fd5b6001600b60008373ffffffffffffffffffffffffffffffffffffffff1673ffffffffffffffffffffffffffffffffffffffff16815260200190815260200160002060000160006101000a81548160ff021916908315150217905550600b60008273ffffffffffffffffffffffffffffffffffffffff1673ffffffffffffffffffffffffffffffffffffffff168152602001908152602001600020600101620f4240908060018154018082558091505090600182039060005260206000200160009091929091909150555060066000815480929190600101919050555050565b60065481565b6007602052806000526040600020600091509050806000018054600181600116156101000203166002900480601f016020809104026020016040519081016040528092919081815260200182805460018160011615610100020316600290048015610a2c5780601f10610a0157610100808354040283529160200191610a2c565b820191906000526020600020905b815481529060010190602001808311610a0f57829003601f168201915b5050505050908060010154908060020160009054906101000a900460ff16905083565b600160009054906101000a900473ffffffffffffffffffffffffffffffffffffffff1673ffffffffffffffffffffffffffffffffffffffff163373ffffffffffffffffffffffffffffffffffffffff1614610aa957600080fd5b868060000180356001602003833603038112610ac457600080fd5b8083019250508135905060208201915067ffffffffffffffff811115610ae957600080fd5b600181023603821315610afb57600080fd5b6007600060025481526020019081526020016000206000019190610b2092919061126c565b50866020013560076000600254815260200190815260200160002060010181905550866040016020610b55919081019061158d565b600760006002600081548092919060010191905055815260200190815260200160002060020160006101000a81548160ff02191690831515021790555060008090505b86869050811015610d9857868682818110610baf57fe5b905060200281018035600160a003833603038112610bcc57600080fd5b8083019250505060000135600a6000600554815260200190815260200160002060000181905550868682818110610bff57fe5b905060200281018035600160a003833603038112610c1c57600080fd5b808301925050508060200180356001602003833603038112610c3d57600080fd5b8083019250508135905060208201915067ffffffffffffffff811115610c6257600080fd5b600181023603821315610c7457600080fd5b600a600060055481526020019081526020016000206001019190610c9992919061126c565b50868682818110610ca657fe5b905060200281018035600160a003833603038112610cc357600080fd5b808301925050508060400180356001602003833603038112610ce457600080fd5b8083019250508135905060208201915067ffffffffffffffff811115610d0957600080fd5b600181023603821315610d1b57600080fd5b600a600060055481526020019081526020016000206002019190610d4092919061126c565b506000600a60006005548152602001908152602001600020600301819055506000600a600060056000815480929190600101919050558152602001908152602001600020600401819055508080600101915050610b98565b5060008090505b84849050811015610ebc57848482818110610db657fe5b9050602002810180356001604003833603038112610dd357600080fd5b808301925050506000013560086000600354815260200190815260200160002060000181905550848482818110610e0657fe5b9050602002810180356001604003833603038112610e2357600080fd5b808301925050508060200180356001602003833603038112610e4457600080fd5b8083019250508135905060208201915067ffffffffffffffff811115610e6957600080fd5b600181023603821315610e7b57600080fd5b60086000600360008154809291906001019190505581526020019081526020016000206001019190610eae92919061126c565b508080600101915050610d9f565b5060008090505b828290508110156110a557828282818110610eda57fe5b9050602002810180356001608003833603038112610ef757600080fd5b808301925050506000013560096000600454815260200190815260200160002060000181905550828282818110610f2a57fe5b9050602002810180356001608003833603038112610f4757600080fd5b808301925050508060200180356001602003833603038112610f6857600080fd5b8083019250508135905060208201915067ffffffffffffffff811115610f8d57600080fd5b600181023603821315610f9f57600080fd5b6009600060045481526020019081526020016000206001019190610fc492919061126c565b50828282818110610fd157fe5b9050602002810180356001608003833603038112610fee57600080fd5b80830192505050806040018035600160200383360303811261100f57600080fd5b8083019250508135905060208201915067ffffffffffffffff81111561103457600080fd5b60018102360382131561104657600080fd5b600960006004548152602001908152602001600020600201919061106b92919061126c565b5060006009600060046000815480929190600101919050558152602001908152602001600020600301819055508080600101915050610ec3565b5050505050505050565b60035481565b60025481565b6008602052806000526040600020600091509050806000015490806001018054600181600116156101000203166002900480601f01602080910402602001604051908101604052809291908181526020018280546001816001161561010002031660029004801561116d5780601f106111425761010080835404028352916020019161116d565b820191906000526020600020905b81548152906001019060200180831161115057829003601f168201915b5050505050905082565b600b6020528060005260406000206000915090508060000160009054906101000a900460ff16905081565b60045481565b6000600160009054906101000a900473ffffffffffffffffffffffffffffffffffffffff16905090565b6000811261123657600181141561120e57600a600083815260200190815260200160002060030160008154809291906001019190505550611235565b600a6000838152602001908152602001600020600401600081548092919060010191905055505b5b5050565b600081126112695760096000828152602001908152602001600020600301600081548092919060010191905055505b50565b828054600181600116156101000203166002900490600052602060002090601f016020900481019282601f106112ad57803560ff19168380011785556112db565b828001600101855582156112db579182015b828111156112da5782358255916020019190600101906112bf565b5b5090506112e891906112ec565b5090565b61130e91905b8082111561130a5760008160009055506001016112f2565b5090565b90565b60008135905061132081611a85565b92915050565b600082601f83011261133757600080fd5b813561134a61134582611983565b611956565b9150818183526020840193506020810190508385602084028201111561136f57600080fd5b60005b8381101561139f5781611385888261151f565b845260208401935060208301925050600181019050611372565b5050505092915050565b60008083601f8401126113bb57600080fd5b8235905067ffffffffffffffff8111156113d457600080fd5b6020830191508360208202830111156113ec57600080fd5b9250929050565b60008083601f84011261140557600080fd5b8235905067ffffffffffffffff81111561141e57600080fd5b60208301915083602082028301111561143657600080fd5b9250929050565b60008083601f84011261144f57600080fd5b8235905067ffffffffffffffff81111561146857600080fd5b60208301915083602082028301111561148057600080fd5b9250929050565b600082601f83011261149857600080fd5b81356114ab6114a6826119ab565b611956565b915081818352602084019350602081019050838560208402820111156114d057600080fd5b60005b8381101561150057816114e6888261154f565b8452602084019350602083019250506001810190506114d3565b5050505092915050565b60008135905061151981611a9c565b92915050565b60008135905061152e81611ab3565b92915050565b60006060828403121561154657600080fd5b81905092915050565b60008135905061155e81611aca565b92915050565b60006020828403121561157657600080fd5b600061158484828501611311565b91505092915050565b60006020828403121561159f57600080fd5b60006115ad8482850161150a565b91505092915050565b60008060008060008060006080888a0312156115d157600080fd5b600088013567ffffffffffffffff8111156115eb57600080fd5b6115f78a828b01611534565b975050602088013567ffffffffffffffff81111561161457600080fd5b6116208a828b016113a9565b9650965050604088013567ffffffffffffffff81111561163f57600080fd5b61164b8a828b0161143d565b9450945050606088013567ffffffffffffffff81111561166a57600080fd5b6116768a828b016113f3565b925092505092959891949750929550565b60006020828403121561169957600080fd5b60006116a78482850161154f565b91505092915050565b600080600080608085870312156116c657600080fd5b60006116d48782880161154f565b945050602085013567ffffffffffffffff8111156116f157600080fd5b6116fd87828801611487565b935050604085013567ffffffffffffffff81111561171a57600080fd5b61172687828801611326565b925050606085013567ffffffffffffffff81111561174357600080fd5b61174f87828801611326565b91505092959194509250565b611764816119ef565b82525050565b61177381611a01565b82525050565b6000611784826119d3565b61178e81856119de565b935061179e818560208601611a41565b6117a781611a74565b840191505092915050565b6117bb81611a37565b82525050565b60006020820190506117d6600083018461175b565b92915050565b60006020820190506117f1600083018461176a565b92915050565b600060208201905081810360008301526118118184611779565b905092915050565b600060608201905081810360008301526118338186611779565b905061184260208301856117b2565b61184f604083018461176a565b949350505050565b600060208201905061186c60008301846117b2565b92915050565b600060408201905061188760008301856117b2565b81810360208301526118998184611779565b90509392505050565b60006080820190506118b760008301876117b2565b81810360208301526118c98186611779565b905081810360408301526118dd8185611779565b90506118ec60608301846117b2565b95945050505050565b600060a08201905061190a60008301886117b2565b818103602083015261191c8187611779565b905081810360408301526119308186611779565b905061193f60608301856117b2565b61194c60808301846117b2565b9695505050505050565b6000604051905081810181811067ffffffffffffffff8211171561197957600080fd5b8060405250919050565b600067ffffffffffffffff82111561199a57600080fd5b602082029050602081019050919050565b600067ffffffffffffffff8211156119c257600080fd5b602082029050602081019050919050565b600081519050919050565b600082825260208201905092915050565b60006119fa82611a17565b9050919050565b60008115159050919050565b6000819050919050565b600073ffffffffffffffffffffffffffffffffffffffff82169050919050565b6000819050919050565b60005b83811015611a5f578082015181840152602081019050611a44565b83811115611a6e576000848401525b50505050565b6000601f19601f8301169050919050565b611a8e816119ef565b8114611a9957600080fd5b50565b611aa581611a01565b8114611ab057600080fd5b50565b611abc81611a0d565b8114611ac757600080fd5b50565b611ad381611a37565b8114611ade57600080fd5b5056fea365627a7a72315820b7defd903e13f61564ed40c9598759a57a990f97e15fdcd323ef1b2166eb86d46c6578706572696d656e74616cf564736f6c63430005100040",
  "source": "pragma solidity >=0.5.0;\r\npragma experimental ABIEncoderV2; /// needed to pass structs in functions \r\n\r\ncontract VoterApp {\r\n  string public appName;\r\n\t\r\n\taddress owner; /// the deployer of this contract\r\n\t\r\n\t/// Mappings are not iterable. Count variables are stored for this purpose\r\n\tuint public electionCount = 0;\r\n\tuint public contestCount = 0;\r\n\tuint public candidateCount = 0;\r\n\tuint public amendmentCount = 0;\r\n\tuint public voterCount = 0;\r\n\t\r\n\t/// Do not have a length. Used for mapping of structs\r\n\tmapping(uint => Election) public elections;\r\n\tmapping(uint => Contest) public contests;\r\n\tmapping(uint => Candidate) public candidates;\r\n\tmapping(uint => Amendment) public amendments;\r\n\tmapping(address => Voter) public voters;\r\n\t\r\n\t/// Restricts access to the owner\r\n\tmodifier onlyOwner() {\r\n\t\trequire(msg.sender == owner);\r\n\t\t_;\r\n\t}\r\n\t\r\n\tstruct Election {\r\n\t\tstring electionName;\r\n\t\tuint closingDate;\r\n\t\tbool isClosed;\r\n\t}\r\n\t\r\n\tstruct Amendment {\r\n\t\tuint electionId;\r\n\t\tstring amendmentName;\r\n\t\tstring amendmentDescription;\r\n\t\tuint votesFor;\r\n\t\tuint votesAgainst;\r\n\t}\r\n\t\r\n\tstruct Contest {\r\n\t\tuint electionId;\r\n\t\tstring contestName;\r\n\t}\r\n\t\r\n\tstruct Candidate {\r\n\t\tuint contestId;\r\n\t\tstring candidateName;\r\n\t\tstring candidatePlatform;\r\n\t\tuint voteCount;\r\n\t}\r\n\t\r\n\tstruct Voter {\r\n\t\tbool isRegistered;\r\n\t\tuint[] voted; /// stores the election id that a voter has submitted a ballot\r\n\t}\r\n\t\r\n\tconstructor() public {\r\n\t\tappName = \"CGary Voter Application\";\r\n\t\towner = msg.sender; /// sets the deployer of the contract as the owner\r\n\t\tregisterVoter(owner); /// adds the owner as a registered voter\r\n\t}\r\n\t\r\n\tfunction isAdmin() public returns (address) {\r\n\t\treturn owner;\r\n\t}\r\n\t\r\n\tfunction createElection(Election calldata _election, Amendment[] calldata _amendments, Contest[] calldata _contests, Candidate[] calldata _candidates) external onlyOwner {\r\n\t\telections[electionCount].electionName = _election.electionName;\r\n\t\telections[electionCount].closingDate = _election.closingDate;\r\n\t\telections[electionCount++].isClosed = _election.isClosed;\r\n\t\t\r\n\t\tfor(uint i=0; i<_amendments.length; i++){\r\n\t\t\tamendments[amendmentCount].electionId = _amendments[i].electionId;\r\n\t\t\tamendments[amendmentCount].amendmentName = _amendments[i].amendmentName;\r\n\t\t\tamendments[amendmentCount].amendmentDescription = _amendments[i].amendmentDescription;\r\n\t\t\tamendments[amendmentCount].votesFor = 0;\r\n\t\t\tamendments[amendmentCount++].votesAgainst = 0;\r\n\t\t}\r\n\t\t\r\n\t\tfor(uint i=0; i<_contests.length; i++){\r\n\t\t\tcontests[contestCount].electionId = _contests[i].electionId;\r\n\t\t\tcontests[contestCount++].contestName = _contests[i].contestName;\r\n\t\t}\r\n\t\t\r\n\t\tfor(uint i=0; i<_candidates.length; i++){\r\n\t\t\tcandidates[candidateCount].contestId = _candidates[i].contestId;\r\n\t\t\tcandidates[candidateCount].candidateName = _candidates[i].candidateName;\r\n\t\t\tcandidates[candidateCount].candidatePlatform = _candidates[i].candidatePlatform;\r\n\t\t\tcandidates[candidateCount++].voteCount = 0;\r\n\t\t}\r\n\t}\r\n\t\r\n\tfunction registerVoter(address _voterId) public onlyOwner {\r\n\t\tvoters[_voterId].isRegistered = true;\r\n\t\tvoters[_voterId].voted.push(1000000);\r\n\t\t\r\n\t\tvoterCount++;\r\n\t}\r\n\t\r\n\tfunction castBallot(uint electionId, uint[] memory amendmentId, int[] memory amendmentVote, int[] memory contestVote) public {\r\n\t\tfor(uint i=0; i<voters[msg.sender].voted.length; i++){\r\n\t\t\trequire(!(voters[msg.sender].voted[i] == electionId));\r\n\t\t}\r\n\t\t\r\n\t\tfor(uint i=0; i<amendmentId.length; i++) {\r\n\t\t\tvotesForAmendment(amendmentId[i], amendmentVote[i]);\r\n\t\t}\r\n\r\n\t\tfor(uint i=0; i<contestVote.length; i++) {\r\n\t\t\tvotesForCandidate(contestVote[i]);\r\n\t\t}\r\n\t\t\r\n\t\tvoters[msg.sender].voted.push(electionId);\r\n\t}\r\n\t\r\n\tfunction votesForCandidate(int _candidateId) private {\r\n\t\tif(_candidateId >= 0 )\r\n\t\t\tcandidates[uint256(_candidateId)].voteCount++;\r\n\t}\r\n\t\r\n\tfunction votesForAmendment(uint _amendmentId, int _vote) private {\r\n\t\tif(_vote >= 0){\r\n\t\t\tif(_vote == 1)\r\n\t\t\t\tamendments[_amendmentId].votesFor++;\r\n\t\t\telse\r\n\t\t\t\tamendments[_amendmentId].votesAgainst++;\r\n\t\t}\r\n\t}\r\n}\r\n\r\n",
  "sourcePath": "c:/wamp64/www/csci7136/voterApp/src/contracts/VoterApp.sol",
  "compiler": {
    "name": "solc",
    "version": "0.5.16+commit.9c3226ce.Emscripten.clang"
  },
  "schemaVersion": "3.3.4",
  "updatedAt": "2021-04-29T07:34:29.858Z",
  "devdoc": {
    "methods": {}
  },
  "userdoc": {
    "methods": {},
    "notice": "needed to pass structs in functions "
  }
}